{
  "_format": "hh-sol-artifact-1",
  "contractName": "USDC",
  "sourceName": "contracts/USDC.sol",
  "abi": [
    {
      "inputs": [],
      "stateMutability": "nonpayable",
      "type": "constructor"
    },
    {
      "anonymous": false,
      "inputs": [
        {
          "indexed": true,
          "internalType": "address",
          "name": "owner",
          "type": "address"
        },
        {
          "indexed": true,
          "internalType": "address",
          "name": "spender",
          "type": "address"
        },
        {
          "indexed": false,
          "internalType": "uint256",
          "name": "value",
          "type": "uint256"
        }
      ],
      "name": "Approval",
      "type": "event"
    },
    {
      "anonymous": false,
      "inputs": [
        {
          "indexed": true,
          "internalType": "address",
          "name": "previousOwner",
          "type": "address"
        },
        {
          "indexed": true,
          "internalType": "address",
          "name": "newOwner",
          "type": "address"
        }
      ],
      "name": "OwnershipTransferred",
      "type": "event"
    },
    {
      "anonymous": false,
      "inputs": [
        {
          "indexed": false,
          "internalType": "address",
          "name": "account",
          "type": "address"
        }
      ],
      "name": "Paused",
      "type": "event"
    },
    {
      "anonymous": false,
      "inputs": [
        {
          "indexed": true,
          "internalType": "address",
          "name": "from",
          "type": "address"
        },
        {
          "indexed": true,
          "internalType": "address",
          "name": "to",
          "type": "address"
        },
        {
          "indexed": false,
          "internalType": "uint256",
          "name": "value",
          "type": "uint256"
        }
      ],
      "name": "Transfer",
      "type": "event"
    },
    {
      "anonymous": false,
      "inputs": [
        {
          "indexed": false,
          "internalType": "address",
          "name": "account",
          "type": "address"
        }
      ],
      "name": "Unpaused",
      "type": "event"
    },
    {
      "inputs": [
        {
          "internalType": "address",
          "name": "owner",
          "type": "address"
        },
        {
          "internalType": "address",
          "name": "spender",
          "type": "address"
        }
      ],
      "name": "allowance",
      "outputs": [
        {
          "internalType": "uint256",
          "name": "",
          "type": "uint256"
        }
      ],
      "stateMutability": "view",
      "type": "function"
    },
    {
      "inputs": [
        {
          "internalType": "address",
          "name": "spender",
          "type": "address"
        },
        {
          "internalType": "uint256",
          "name": "amount",
          "type": "uint256"
        }
      ],
      "name": "approve",
      "outputs": [
        {
          "internalType": "bool",
          "name": "",
          "type": "bool"
        }
      ],
      "stateMutability": "nonpayable",
      "type": "function"
    },
    {
      "inputs": [
        {
          "internalType": "address",
          "name": "account",
          "type": "address"
        }
      ],
      "name": "balanceOf",
      "outputs": [
        {
          "internalType": "uint256",
          "name": "",
          "type": "uint256"
        }
      ],
      "stateMutability": "view",
      "type": "function"
    },
    {
      "inputs": [],
      "name": "decimals",
      "outputs": [
        {
          "internalType": "uint8",
          "name": "",
          "type": "uint8"
        }
      ],
      "stateMutability": "pure",
      "type": "function"
    },
    {
      "inputs": [
        {
          "internalType": "address",
          "name": "spender",
          "type": "address"
        },
        {
          "internalType": "uint256",
          "name": "subtractedValue",
          "type": "uint256"
        }
      ],
      "name": "decreaseAllowance",
      "outputs": [
        {
          "internalType": "bool",
          "name": "",
          "type": "bool"
        }
      ],
      "stateMutability": "nonpayable",
      "type": "function"
    },
    {
      "inputs": [],
      "name": "faucet",
      "outputs": [],
      "stateMutability": "nonpayable",
      "type": "function"
    },
    {
      "inputs": [
        {
          "internalType": "address",
          "name": "spender",
          "type": "address"
        },
        {
          "internalType": "uint256",
          "name": "addedValue",
          "type": "uint256"
        }
      ],
      "name": "increaseAllowance",
      "outputs": [
        {
          "internalType": "bool",
          "name": "",
          "type": "bool"
        }
      ],
      "stateMutability": "nonpayable",
      "type": "function"
    },
    {
      "inputs": [
        {
          "internalType": "address",
          "name": "to",
          "type": "address"
        },
        {
          "internalType": "uint256",
          "name": "amount",
          "type": "uint256"
        }
      ],
      "name": "mint",
      "outputs": [],
      "stateMutability": "nonpayable",
      "type": "function"
    },
    {
      "inputs": [],
      "name": "name",
      "outputs": [
        {
          "internalType": "string",
          "name": "",
          "type": "string"
        }
      ],
      "stateMutability": "view",
      "type": "function"
    },
    {
      "inputs": [],
      "name": "owner",
      "outputs": [
        {
          "internalType": "address",
          "name": "",
          "type": "address"
        }
      ],
      "stateMutability": "view",
      "type": "function"
    },
    {
      "inputs": [],
      "name": "pause",
      "outputs": [],
      "stateMutability": "nonpayable",
      "type": "function"
    },
    {
      "inputs": [],
      "name": "paused",
      "outputs": [
        {
          "internalType": "bool",
          "name": "",
          "type": "bool"
        }
      ],
      "stateMutability": "view",
      "type": "function"
    },
    {
      "inputs": [],
      "name": "renounceOwnership",
      "outputs": [],
      "stateMutability": "nonpayable",
      "type": "function"
    },
    {
      "inputs": [],
      "name": "symbol",
      "outputs": [
        {
          "internalType": "string",
          "name": "",
          "type": "string"
        }
      ],
      "stateMutability": "view",
      "type": "function"
    },
    {
      "inputs": [],
      "name": "totalSupply",
      "outputs": [
        {
          "internalType": "uint256",
          "name": "",
          "type": "uint256"
        }
      ],
      "stateMutability": "view",
      "type": "function"
    },
    {
      "inputs": [
        {
          "internalType": "address",
          "name": "to",
          "type": "address"
        },
        {
          "internalType": "uint256",
          "name": "amount",
          "type": "uint256"
        }
      ],
      "name": "transfer",
      "outputs": [
        {
          "internalType": "bool",
          "name": "",
          "type": "bool"
        }
      ],
      "stateMutability": "nonpayable",
      "type": "function"
    },
    {
      "inputs": [
        {
          "internalType": "address",
          "name": "from",
          "type": "address"
        },
        {
          "internalType": "address",
          "name": "to",
          "type": "address"
        },
        {
          "internalType": "uint256",
          "name": "amount",
          "type": "uint256"
        }
      ],
      "name": "transferFrom",
      "outputs": [
        {
          "internalType": "bool",
          "name": "",
          "type": "bool"
        }
      ],
      "stateMutability": "nonpayable",
      "type": "function"
    },
    {
      "inputs": [
        {
          "internalType": "address",
          "name": "newOwner",
          "type": "address"
        }
      ],
      "name": "transferOwnership",
      "outputs": [],
      "stateMutability": "nonpayable",
      "type": "function"
    },
    {
      "inputs": [],
      "name": "unpause",
      "outputs": [],
      "stateMutability": "nonpayable",
      "type": "function"
    }
  ],
  "bytecode": "0x60806040523480156200001157600080fd5b50604051806040016040528060088152602001672aa9a21021b7b4b760c11b815250604051806040016040528060048152602001635553444360e01b815250816003908162000061919062000311565b50600462000070828262000311565b5050506200008d62000087620000c860201b60201c565b620000cc565b6005805460ff60a01b19169055620000c233620000ad6006600a620004f2565b620000bc90620f42406200050a565b6200011e565b6200053a565b3390565b600580546001600160a01b038381166001600160a01b0319831681179093556040519116919082907f8be0079c531659141344cd1fd0a4f28419497f9722a3daafe3b4186f6b6457e090600090a35050565b6001600160a01b0382166200017a5760405162461bcd60e51b815260206004820152601f60248201527f45524332303a206d696e7420746f20746865207a65726f20616464726573730060448201526064015b60405180910390fd5b6200018860008383620001f3565b80600260008282546200019c919062000524565b90915550506001600160a01b038216600081815260208181526040808320805486019055518481527fddf252ad1be2c89b69c2b068fc378daa952ba7f163c4a11628f55a4df523b3ef910160405180910390a35050565b620001fd62000215565b620002108383836001600160e01b038416565b505050565b62000229600554600160a01b900460ff1690565b156200026b5760405162461bcd60e51b815260206004820152601060248201526f14185d5cd8589b194e881c185d5cd95960821b604482015260640162000171565b565b634e487b7160e01b600052604160045260246000fd5b600181811c908216806200029857607f821691505b602082108103620002b957634e487b7160e01b600052602260045260246000fd5b50919050565b601f8211156200021057600081815260208120601f850160051c81016020861015620002e85750805b601f850160051c820191505b818110156200030957828155600101620002f4565b505050505050565b81516001600160401b038111156200032d576200032d6200026d565b62000345816200033e845462000283565b84620002bf565b602080601f8311600181146200037d5760008415620003645750858301515b600019600386901b1c1916600185901b17855562000309565b600085815260208120601f198616915b82811015620003ae578886015182559484019460019091019084016200038d565b5085821015620003cd5787850151600019600388901b60f8161c191681555b5050505050600190811b01905550565b634e487b7160e01b600052601160045260246000fd5b600181815b8085111562000434578160001904821115620004185762000418620003dd565b808516156200042657918102915b93841c9390800290620003f8565b509250929050565b6000826200044d57506001620004ec565b816200045c57506000620004ec565b81600181146200047557600281146200048057620004a0565b6001915050620004ec565b60ff841115620004945762000494620003dd565b50506001821b620004ec565b5060208310610133831016604e8410600b8410161715620004c5575081810a620004ec565b620004d18383620003f3565b8060001904821115620004e857620004e8620003dd565b0290505b92915050565b60006200050360ff8416836200043c565b9392505050565b8082028115828204841417620004ec57620004ec620003dd565b80820180821115620004ec57620004ec620003dd565b610e4f806200054a6000396000f3fe608060405234801561001057600080fd5b50600436106101215760003560e01c806370a08231116100ad578063a457c2d711610071578063a457c2d714610239578063a9059cbb1461024c578063dd62ed3e1461025f578063de5f72fd14610272578063f2fde38b1461027a57600080fd5b806370a08231146101dd578063715018a6146102065780638456cb591461020e5780638da5cb5b1461021657806395d89b411461023157600080fd5b8063313ce567116100f4578063313ce5671461018c578063395093511461019b5780633f4ba83a146101ae57806340c10f19146101b85780635c975abb146101cb57600080fd5b806306fdde0314610126578063095ea7b31461014457806318160ddd1461016757806323b872dd14610179575b600080fd5b61012e61028d565b60405161013b9190610b87565b60405180910390f35b610157610152366004610bf1565b61031f565b604051901515815260200161013b565b6002545b60405190815260200161013b565b610157610187366004610c1b565b610339565b6040516006815260200161013b565b6101576101a9366004610bf1565b61035d565b6101b661037f565b005b6101b66101c6366004610bf1565b610391565b600554600160a01b900460ff16610157565b61016b6101eb366004610c57565b6001600160a01b031660009081526020819052604090205490565b6101b66103a7565b6101b66103b9565b6005546040516001600160a01b03909116815260200161013b565b61012e6103c9565b610157610247366004610bf1565b6103d8565b61015761025a366004610bf1565b610458565b61016b61026d366004610c79565b610466565b6101b6610491565b6101b6610288366004610c57565b610508565b60606003805461029c90610cac565b80601f01602080910402602001604051908101604052809291908181526020018280546102c890610cac565b80156103155780601f106102ea57610100808354040283529160200191610315565b820191906000526020600020905b8154815290600101906020018083116102f857829003601f168201915b5050505050905090565b60003361032d818585610581565b60019150505b92915050565b6000336103478582856106a5565b61035285858561071f565b506001949350505050565b60003361032d8185856103708383610466565b61037a9190610cfc565b610581565b6103876108ce565b61038f610928565b565b6103996108ce565b6103a3828261097d565b5050565b6103af6108ce565b61038f6000610a48565b6103c16108ce565b61038f610a9a565b60606004805461029c90610cac565b600033816103e68286610466565b90508381101561044b5760405162461bcd60e51b815260206004820152602560248201527f45524332303a2064656372656173656420616c6c6f77616e63652062656c6f77604482015264207a65726f60d81b60648201526084015b60405180910390fd5b6103528286868403610581565b60003361032d81858561071f565b6001600160a01b03918216600090815260016020908152604080832093909416825291909152205490565b33600090815260208190526040902054156104e75760405162461bcd60e51b8152602060048201526016602482015275105b1c9958591e4818db185a5b59590819985d58d95d60521b6044820152606401610442565b61038f336104f76006600a610df3565b610503906103e8610e02565b61097d565b6105106108ce565b6001600160a01b0381166105755760405162461bcd60e51b815260206004820152602660248201527f4f776e61626c653a206e6577206f776e657220697320746865207a65726f206160448201526564647265737360d01b6064820152608401610442565b61057e81610a48565b50565b6001600160a01b0383166105e35760405162461bcd60e51b8152602060048201526024808201527f45524332303a20617070726f76652066726f6d20746865207a65726f206164646044820152637265737360e01b6064820152608401610442565b6001600160a01b0382166106445760405162461bcd60e51b815260206004820152602260248201527f45524332303a20617070726f766520746f20746865207a65726f206164647265604482015261737360f01b6064820152608401610442565b6001600160a01b0383811660008181526001602090815260408083209487168084529482529182902085905590518481527f8c5be1e5ebec7d5bd14f71427d1e84f3dd0314c0f7b2291e5b200ac8c7c3b925910160405180910390a3505050565b60006106b18484610466565b90506000198114610719578181101561070c5760405162461bcd60e51b815260206004820152601d60248201527f45524332303a20696e73756666696369656e7420616c6c6f77616e63650000006044820152606401610442565b6107198484848403610581565b50505050565b6001600160a01b0383166107835760405162461bcd60e51b815260206004820152602560248201527f45524332303a207472616e736665722066726f6d20746865207a65726f206164604482015264647265737360d81b6064820152608401610442565b6001600160a01b0382166107e55760405162461bcd60e51b815260206004820152602360248201527f45524332303a207472616e7366657220746f20746865207a65726f206164647260448201526265737360e81b6064820152608401610442565b6107f0838383610add565b6001600160a01b038316600090815260208190526040902054818110156108685760405162461bcd60e51b815260206004820152602660248201527f45524332303a207472616e7366657220616d6f756e7420657863656564732062604482015265616c616e636560d01b6064820152608401610442565b6001600160a01b03848116600081815260208181526040808320878703905593871680835291849020805487019055925185815290927fddf252ad1be2c89b69c2b068fc378daa952ba7f163c4a11628f55a4df523b3ef910160405180910390a3610719565b6005546001600160a01b0316331461038f5760405162461bcd60e51b815260206004820181905260248201527f4f776e61626c653a2063616c6c6572206973206e6f7420746865206f776e65726044820152606401610442565b610930610aea565b6005805460ff60a01b191690557f5db9ee0a495bf2e6ff9c91a7834c1ba4fdd244a5e8aa4e537bd38aeae4b073aa335b6040516001600160a01b03909116815260200160405180910390a1565b6001600160a01b0382166109d35760405162461bcd60e51b815260206004820152601f60248201527f45524332303a206d696e7420746f20746865207a65726f2061646472657373006044820152606401610442565b6109df60008383610add565b80600260008282546109f19190610cfc565b90915550506001600160a01b038216600081815260208181526040808320805486019055518481527fddf252ad1be2c89b69c2b068fc378daa952ba7f163c4a11628f55a4df523b3ef910160405180910390a35050565b600580546001600160a01b038381166001600160a01b0319831681179093556040519116919082907f8be0079c531659141344cd1fd0a4f28419497f9722a3daafe3b4186f6b6457e090600090a35050565b610aa2610b3a565b6005805460ff60a01b1916600160a01b1790557f62e78cea01bee320cd4e420270b5ea74000d11b0c9f74754ebdbfc544b05a2586109603390565b610ae5610b3a565b505050565b600554600160a01b900460ff1661038f5760405162461bcd60e51b815260206004820152601460248201527314185d5cd8589b194e881b9bdd081c185d5cd95960621b6044820152606401610442565b600554600160a01b900460ff161561038f5760405162461bcd60e51b815260206004820152601060248201526f14185d5cd8589b194e881c185d5cd95960821b6044820152606401610442565b600060208083528351808285015260005b81811015610bb457858101830151858201604001528201610b98565b506000604082860101526040601f19601f8301168501019250505092915050565b80356001600160a01b0381168114610bec57600080fd5b919050565b60008060408385031215610c0457600080fd5b610c0d83610bd5565b946020939093013593505050565b600080600060608486031215610c3057600080fd5b610c3984610bd5565b9250610c4760208501610bd5565b9150604084013590509250925092565b600060208284031215610c6957600080fd5b610c7282610bd5565b9392505050565b60008060408385031215610c8c57600080fd5b610c9583610bd5565b9150610ca360208401610bd5565b90509250929050565b600181811c90821680610cc057607f821691505b602082108103610ce057634e487b7160e01b600052602260045260246000fd5b50919050565b634e487b7160e01b600052601160045260246000fd5b8082018082111561033357610333610ce6565b600181815b80851115610d4a578160001904821115610d3057610d30610ce6565b80851615610d3d57918102915b93841c9390800290610d14565b509250929050565b600082610d6157506001610333565b81610d6e57506000610333565b8160018114610d845760028114610d8e57610daa565b6001915050610333565b60ff841115610d9f57610d9f610ce6565b50506001821b610333565b5060208310610133831016604e8410600b8410161715610dcd575081810a610333565b610dd78383610d0f565b8060001904821115610deb57610deb610ce6565b029392505050565b6000610c7260ff841683610d52565b808202811582820484141761033357610333610ce656fea2646970667358221220e32e3132d86796fcf40661077db5d09499be066da000f3f433b0569c24a499f164736f6c63430008130033",
  "linkReferences": {},
  "deployedLinkReferences": {}
}