{
  "_format": "hh-sol-artifact-1",
  "contractName": "SubscriptionManager",
  "sourceName": "contracts/SubscriptionManager.sol",
  "abi": [
    {
      "inputs": [
        {
          "internalType": "address",
          "name": "_usdcToken",
          "type": "address"
        }
      ],
      "stateMutability": "nonpayable",
      "type": "constructor"
    },
    {
      "anonymous": false,
      "inputs": [
        {
          "indexed": true,
          "internalType": "address",
          "name": "owner",
          "type": "address"
        },
        {
          "indexed": true,
          "internalType": "address",
          "name": "approved",
          "type": "address"
        },
        {
          "indexed": true,
          "internalType": "uint256",
          "name": "tokenId",
          "type": "uint256"
        }
      ],
      "name": "Approval",
      "type": "event"
    },
    {
      "anonymous": false,
      "inputs": [
        {
          "indexed": true,
          "internalType": "address",
          "name": "owner",
          "type": "address"
        },
        {
          "indexed": true,
          "internalType": "address",
          "name": "operator",
          "type": "address"
        },
        {
          "indexed": false,
          "internalType": "bool",
          "name": "approved",
          "type": "bool"
        }
      ],
      "name": "ApprovalForAll",
      "type": "event"
    },
    {
      "anonymous": false,
      "inputs": [
        {
          "indexed": true,
          "internalType": "uint256",
          "name": "tokenId",
          "type": "uint256"
        },
        {
          "indexed": false,
          "internalType": "bool",
          "name": "enabled",
          "type": "bool"
        }
      ],
      "name": "AutoRenewalToggled",
      "type": "event"
    },
    {
      "anonymous": false,
      "inputs": [
        {
          "indexed": true,
          "internalType": "address",
          "name": "previousOwner",
          "type": "address"
        },
        {
          "indexed": true,
          "internalType": "address",
          "name": "newOwner",
          "type": "address"
        }
      ],
      "name": "OwnershipTransferred",
      "type": "event"
    },
    {
      "anonymous": false,
      "inputs": [
        {
          "indexed": false,
          "internalType": "address",
          "name": "account",
          "type": "address"
        }
      ],
      "name": "Paused",
      "type": "event"
    },
    {
      "anonymous": false,
      "inputs": [
        {
          "indexed": true,
          "internalType": "uint256",
          "name": "planId",
          "type": "uint256"
        },
        {
          "indexed": false,
          "internalType": "string",
          "name": "name",
          "type": "string"
        },
        {
          "indexed": false,
          "internalType": "uint256",
          "name": "price",
          "type": "uint256"
        },
        {
          "indexed": false,
          "internalType": "address",
          "name": "creator",
          "type": "address"
        }
      ],
      "name": "PlanCreated",
      "type": "event"
    },
    {
      "anonymous": false,
      "inputs": [
        {
          "indexed": true,
          "internalType": "uint256",
          "name": "tokenId",
          "type": "uint256"
        },
        {
          "indexed": true,
          "internalType": "address",
          "name": "user",
          "type": "address"
        }
      ],
      "name": "SubscriptionCancelled",
      "type": "event"
    },
    {
      "anonymous": false,
      "inputs": [
        {
          "indexed": true,
          "internalType": "uint256",
          "name": "tokenId",
          "type": "uint256"
        },
        {
          "indexed": true,
          "internalType": "uint256",
          "name": "planId",
          "type": "uint256"
        },
        {
          "indexed": true,
          "internalType": "address",
          "name": "user",
          "type": "address"
        },
        {
          "indexed": false,
          "internalType": "uint256",
          "name": "expiryDate",
          "type": "uint256"
        }
      ],
      "name": "SubscriptionCreated",
      "type": "event"
    },
    {
      "anonymous": false,
      "inputs": [
        {
          "indexed": true,
          "internalType": "uint256",
          "name": "tokenId",
          "type": "uint256"
        },
        {
          "indexed": false,
          "internalType": "uint256",
          "name": "newExpiryDate",
          "type": "uint256"
        }
      ],
      "name": "SubscriptionRenewed",
      "type": "event"
    },
    {
      "anonymous": false,
      "inputs": [
        {
          "indexed": true,
          "internalType": "address",
          "name": "from",
          "type": "address"
        },
        {
          "indexed": true,
          "internalType": "address",
          "name": "to",
          "type": "address"
        },
        {
          "indexed": true,
          "internalType": "uint256",
          "name": "tokenId",
          "type": "uint256"
        }
      ],
      "name": "Transfer",
      "type": "event"
    },
    {
      "anonymous": false,
      "inputs": [
        {
          "indexed": false,
          "internalType": "address",
          "name": "account",
          "type": "address"
        }
      ],
      "name": "Unpaused",
      "type": "event"
    },
    {
      "inputs": [],
      "name": "DEFAULT_DURATION",
      "outputs": [
        {
          "internalType": "uint256",
          "name": "",
          "type": "uint256"
        }
      ],
      "stateMutability": "view",
      "type": "function"
    },
    {
      "inputs": [
        {
          "internalType": "address",
          "name": "to",
          "type": "address"
        },
        {
          "internalType": "uint256",
          "name": "tokenId",
          "type": "uint256"
        }
      ],
      "name": "approve",
      "outputs": [],
      "stateMutability": "nonpayable",
      "type": "function"
    },
    {
      "inputs": [
        {
          "internalType": "address",
          "name": "owner",
          "type": "address"
        }
      ],
      "name": "balanceOf",
      "outputs": [
        {
          "internalType": "uint256",
          "name": "",
          "type": "uint256"
        }
      ],
      "stateMutability": "view",
      "type": "function"
    },
    {
      "inputs": [
        {
          "internalType": "uint256",
          "name": "_tokenId",
          "type": "uint256"
        }
      ],
      "name": "cancelSubscription",
      "outputs": [],
      "stateMutability": "nonpayable",
      "type": "function"
    },
    {
      "inputs": [
        {
          "internalType": "string",
          "name": "_name",
          "type": "string"
        },
        {
          "internalType": "uint256",
          "name": "_price",
          "type": "uint256"
        },
        {
          "internalType": "string",
          "name": "_description",
          "type": "string"
        }
      ],
      "name": "createPlan",
      "outputs": [],
      "stateMutability": "nonpayable",
      "type": "function"
    },
    {
      "inputs": [
        {
          "internalType": "uint256",
          "name": "tokenId",
          "type": "uint256"
        }
      ],
      "name": "getApproved",
      "outputs": [
        {
          "internalType": "address",
          "name": "",
          "type": "address"
        }
      ],
      "stateMutability": "view",
      "type": "function"
    },
    {
      "inputs": [],
      "name": "getAvailablePlans",
      "outputs": [
        {
          "components": [
            {
              "internalType": "uint256",
              "name": "id",
              "type": "uint256"
            },
            {
              "internalType": "string",
              "name": "name",
              "type": "string"
            },
            {
              "internalType": "uint256",
              "name": "price",
              "type": "uint256"
            },
            {
              "internalType": "string",
              "name": "description",
              "type": "string"
            },
            {
              "internalType": "address",
              "name": "creator",
              "type": "address"
            },
            {
              "internalType": "bool",
              "name": "isActive",
              "type": "bool"
            }
          ],
          "internalType": "struct SubscriptionManager.SubscriptionPlan[]",
          "name": "",
          "type": "tuple[]"
        }
      ],
      "stateMutability": "view",
      "type": "function"
    },
    {
      "inputs": [
        {
          "internalType": "uint256",
          "name": "_planId",
          "type": "uint256"
        }
      ],
      "name": "getPlanDetails",
      "outputs": [
        {
          "components": [
            {
              "internalType": "uint256",
              "name": "id",
              "type": "uint256"
            },
            {
              "internalType": "string",
              "name": "name",
              "type": "string"
            },
            {
              "internalType": "uint256",
              "name": "price",
              "type": "uint256"
            },
            {
              "internalType": "string",
              "name": "description",
              "type": "string"
            },
            {
              "internalType": "address",
              "name": "creator",
              "type": "address"
            },
            {
              "internalType": "bool",
              "name": "isActive",
              "type": "bool"
            }
          ],
          "internalType": "struct SubscriptionManager.SubscriptionPlan",
          "name": "",
          "type": "tuple"
        }
      ],
      "stateMutability": "view",
      "type": "function"
    },
    {
      "inputs": [
        {
          "internalType": "uint256",
          "name": "_tokenId",
          "type": "uint256"
        }
      ],
      "name": "getSubscriptionDetails",
      "outputs": [
        {
          "internalType": "uint256",
          "name": "planId",
          "type": "uint256"
        },
        {
          "internalType": "uint256",
          "name": "expiryDate",
          "type": "uint256"
        },
        {
          "internalType": "bool",
          "name": "isActive",
          "type": "bool"
        }
      ],
      "stateMutability": "view",
      "type": "function"
    },
    {
      "inputs": [
        {
          "internalType": "address",
          "name": "_user",
          "type": "address"
        }
      ],
      "name": "getUserSubscriptions",
      "outputs": [
        {
          "internalType": "uint256[]",
          "name": "",
          "type": "uint256[]"
        }
      ],
      "stateMutability": "view",
      "type": "function"
    },
    {
      "inputs": [
        {
          "internalType": "address",
          "name": "owner",
          "type": "address"
        },
        {
          "internalType": "address",
          "name": "operator",
          "type": "address"
        }
      ],
      "name": "isApprovedForAll",
      "outputs": [
        {
          "internalType": "bool",
          "name": "",
          "type": "bool"
        }
      ],
      "stateMutability": "view",
      "type": "function"
    },
    {
      "inputs": [
        {
          "internalType": "uint256",
          "name": "_tokenId",
          "type": "uint256"
        }
      ],
      "name": "isSubscriptionExpired",
      "outputs": [
        {
          "internalType": "bool",
          "name": "",
          "type": "bool"
        }
      ],
      "stateMutability": "view",
      "type": "function"
    },
    {
      "inputs": [],
      "name": "name",
      "outputs": [
        {
          "internalType": "string",
          "name": "",
          "type": "string"
        }
      ],
      "stateMutability": "view",
      "type": "function"
    },
    {
      "inputs": [],
      "name": "nextPlanId",
      "outputs": [
        {
          "internalType": "uint256",
          "name": "",
          "type": "uint256"
        }
      ],
      "stateMutability": "view",
      "type": "function"
    },
    {
      "inputs": [],
      "name": "owner",
      "outputs": [
        {
          "internalType": "address",
          "name": "",
          "type": "address"
        }
      ],
      "stateMutability": "view",
      "type": "function"
    },
    {
      "inputs": [
        {
          "internalType": "uint256",
          "name": "tokenId",
          "type": "uint256"
        }
      ],
      "name": "ownerOf",
      "outputs": [
        {
          "internalType": "address",
          "name": "",
          "type": "address"
        }
      ],
      "stateMutability": "view",
      "type": "function"
    },
    {
      "inputs": [],
      "name": "pause",
      "outputs": [],
      "stateMutability": "nonpayable",
      "type": "function"
    },
    {
      "inputs": [],
      "name": "paused",
      "outputs": [
        {
          "internalType": "bool",
          "name": "",
          "type": "bool"
        }
      ],
      "stateMutability": "view",
      "type": "function"
    },
    {
      "inputs": [
        {
          "internalType": "uint256",
          "name": "",
          "type": "uint256"
        },
        {
          "internalType": "uint256",
          "name": "",
          "type": "uint256"
        }
      ],
      "name": "planSubscribers",
      "outputs": [
        {
          "internalType": "uint256",
          "name": "",
          "type": "uint256"
        }
      ],
      "stateMutability": "view",
      "type": "function"
    },
    {
      "inputs": [
        {
          "internalType": "uint256",
          "name": "_tokenId",
          "type": "uint256"
        }
      ],
      "name": "processAutoRenewal",
      "outputs": [],
      "stateMutability": "nonpayable",
      "type": "function"
    },
    {
      "inputs": [
        {
          "internalType": "uint256",
          "name": "_tokenId",
          "type": "uint256"
        }
      ],
      "name": "renewSubscription",
      "outputs": [],
      "stateMutability": "nonpayable",
      "type": "function"
    },
    {
      "inputs": [],
      "name": "renounceOwnership",
      "outputs": [],
      "stateMutability": "nonpayable",
      "type": "function"
    },
    {
      "inputs": [
        {
          "internalType": "address",
          "name": "from",
          "type": "address"
        },
        {
          "internalType": "address",
          "name": "to",
          "type": "address"
        },
        {
          "internalType": "uint256",
          "name": "tokenId",
          "type": "uint256"
        }
      ],
      "name": "safeTransferFrom",
      "outputs": [],
      "stateMutability": "nonpayable",
      "type": "function"
    },
    {
      "inputs": [
        {
          "internalType": "address",
          "name": "from",
          "type": "address"
        },
        {
          "internalType": "address",
          "name": "to",
          "type": "address"
        },
        {
          "internalType": "uint256",
          "name": "tokenId",
          "type": "uint256"
        },
        {
          "internalType": "bytes",
          "name": "data",
          "type": "bytes"
        }
      ],
      "name": "safeTransferFrom",
      "outputs": [],
      "stateMutability": "nonpayable",
      "type": "function"
    },
    {
      "inputs": [
        {
          "internalType": "address",
          "name": "operator",
          "type": "address"
        },
        {
          "internalType": "bool",
          "name": "approved",
          "type": "bool"
        }
      ],
      "name": "setApprovalForAll",
      "outputs": [],
      "stateMutability": "nonpayable",
      "type": "function"
    },
    {
      "inputs": [
        {
          "internalType": "uint256",
          "name": "_planId",
          "type": "uint256"
        },
        {
          "internalType": "uint256",
          "name": "_duration",
          "type": "uint256"
        }
      ],
      "name": "subscribe",
      "outputs": [],
      "stateMutability": "nonpayable",
      "type": "function"
    },
    {
      "inputs": [
        {
          "internalType": "uint256",
          "name": "",
          "type": "uint256"
        }
      ],
      "name": "subscriptionPlans",
      "outputs": [
        {
          "internalType": "uint256",
          "name": "id",
          "type": "uint256"
        },
        {
          "internalType": "string",
          "name": "name",
          "type": "string"
        },
        {
          "internalType": "uint256",
          "name": "price",
          "type": "uint256"
        },
        {
          "internalType": "string",
          "name": "description",
          "type": "string"
        },
        {
          "internalType": "address",
          "name": "creator",
          "type": "address"
        },
        {
          "internalType": "bool",
          "name": "isActive",
          "type": "bool"
        }
      ],
      "stateMutability": "view",
      "type": "function"
    },
    {
      "inputs": [
        {
          "internalType": "uint256",
          "name": "",
          "type": "uint256"
        }
      ],
      "name": "subscriptions",
      "outputs": [
        {
          "internalType": "uint256",
          "name": "planId",
          "type": "uint256"
        },
        {
          "internalType": "uint256",
          "name": "expiryDate",
          "type": "uint256"
        },
        {
          "internalType": "bool",
          "name": "isActive",
          "type": "bool"
        },
        {
          "internalType": "bool",
          "name": "autoRenewal",
          "type": "bool"
        }
      ],
      "stateMutability": "view",
      "type": "function"
    },
    {
      "inputs": [
        {
          "internalType": "bytes4",
          "name": "interfaceId",
          "type": "bytes4"
        }
      ],
      "name": "supportsInterface",
      "outputs": [
        {
          "internalType": "bool",
          "name": "",
          "type": "bool"
        }
      ],
      "stateMutability": "view",
      "type": "function"
    },
    {
      "inputs": [],
      "name": "symbol",
      "outputs": [
        {
          "internalType": "string",
          "name": "",
          "type": "string"
        }
      ],
      "stateMutability": "view",
      "type": "function"
    },
    {
      "inputs": [
        {
          "internalType": "uint256",
          "name": "_tokenId",
          "type": "uint256"
        }
      ],
      "name": "toggleAutoRenewal",
      "outputs": [],
      "stateMutability": "nonpayable",
      "type": "function"
    },
    {
      "inputs": [
        {
          "internalType": "uint256",
          "name": "_tokenId",
          "type": "uint256"
        }
      ],
      "name": "tokenURI",
      "outputs": [
        {
          "internalType": "string",
          "name": "",
          "type": "string"
        }
      ],
      "stateMutability": "view",
      "type": "function"
    },
    {
      "inputs": [
        {
          "internalType": "address",
          "name": "from",
          "type": "address"
        },
        {
          "internalType": "address",
          "name": "to",
          "type": "address"
        },
        {
          "internalType": "uint256",
          "name": "tokenId",
          "type": "uint256"
        }
      ],
      "name": "transferFrom",
      "outputs": [],
      "stateMutability": "nonpayable",
      "type": "function"
    },
    {
      "inputs": [
        {
          "internalType": "address",
          "name": "newOwner",
          "type": "address"
        }
      ],
      "name": "transferOwnership",
      "outputs": [],
      "stateMutability": "nonpayable",
      "type": "function"
    },
    {
      "inputs": [],
      "name": "unpause",
      "outputs": [],
      "stateMutability": "nonpayable",
      "type": "function"
    },
    {
      "inputs": [
        {
          "internalType": "uint256",
          "name": "_planId",
          "type": "uint256"
        },
        {
          "internalType": "bool",
          "name": "_isActive",
          "type": "bool"
        }
      ],
      "name": "updatePlanStatus",
      "outputs": [],
      "stateMutability": "nonpayable",
      "type": "function"
    },
    {
      "inputs": [],
      "name": "usdcToken",
      "outputs": [
        {
          "internalType": "contract IERC20",
          "name": "",
          "type": "address"
        }
      ],
      "stateMutability": "view",
      "type": "function"
    },
    {
      "inputs": [
        {
          "internalType": "address",
          "name": "",
          "type": "address"
        },
        {
          "internalType": "uint256",
          "name": "",
          "type": "uint256"
        }
      ],
      "name": "userSubscriptions",
      "outputs": [
        {
          "internalType": "uint256",
          "name": "",
          "type": "uint256"
        }
      ],
      "stateMutability": "view",
      "type": "function"
    },
    {
      "inputs": [],
      "name": "withdrawUSDC",
      "outputs": [],
      "stateMutability": "nonpayable",
      "type": "function"
    }
  ],
  "bytecode": "0x60806040526001600f553480156200001657600080fd5b50604051620047cc380380620047cc833981016040819052620000399162000363565b6040518060400160405280600681526020016514dd5893919560d21b8152506040518060400160405280600681526020016514d55093919560d21b81525081600090816200008891906200043a565b5060016200009782826200043a565b505050620000b4620000ae620001ee60201b60201c565b620001f2565b60016007556008805460ff19169055600a80546001600160a01b0319166001600160a01b03831617905560408051808201825260128152714465466920416e616c79746963732050726f60701b602080830191909152825160608101909352602e80845262000135936301c99c709290919062004770908301393362000244565b620001876040518060400160405280600f81526020016e2bb2b1199023b0b6b4b73390243ab160891b81525063013105f06040518060600160405280602f815260200162004741602f91393362000244565b620001e76040518060400160405280601481526020017f4e4654204d61726b6574706c61636520506c757300000000000000000000000081525063026232f06040518060600160405280602e81526020016200479e602e91393362000244565b5062000596565b3390565b600680546001600160a01b038381166001600160a01b0319831681179093556040519116919082907f8be0079c531659141344cd1fd0a4f28419497f9722a3daafe3b4186f6b6457e090600090a35050565b600f805460009182620002578362000506565b909155506040805160c0810182528281526020808201898152828401899052606083018890526001600160a01b0387166080840152600160a084018190526000868152600b9093529390912082518155905193945090929091820190620002bf90826200043a565b506040820151600282015560608201516003820190620002e090826200043a565b5060808201516004909101805460a0909301511515600160a01b026001600160a81b03199093166001600160a01b039092169190911791909117905560405181907fbaf88bac550ae2e2c318d8ae7b6635be6245d8a97c6eba57d40d83b4878105179062000354908890889087906200052e565b60405180910390a25050505050565b6000602082840312156200037657600080fd5b81516001600160a01b03811681146200038e57600080fd5b9392505050565b634e487b7160e01b600052604160045260246000fd5b600181811c90821680620003c057607f821691505b602082108103620003e157634e487b7160e01b600052602260045260246000fd5b50919050565b601f8211156200043557600081815260208120601f850160051c81016020861015620004105750805b601f850160051c820191505b8181101562000431578281556001016200041c565b5050505b505050565b81516001600160401b0381111562000456576200045662000395565b6200046e81620004678454620003ab565b84620003e7565b602080601f831160018114620004a657600084156200048d5750858301515b600019600386901b1c1916600185901b17855562000431565b600085815260208120601f198616915b82811015620004d757888601518255948401946001909101908401620004b6565b5085821015620004f65787850151600019600388901b60f8161c191681555b5050505050600190811b01905550565b6000600182016200052757634e487b7160e01b600052601160045260246000fd5b5060010190565b606081526000845180606084015260005b818110156200055e57602081880181015160808684010152016200053f565b506000608082850181019190915260208401959095526001600160a01b0393909316604083015250601f909101601f19160101919050565b61419b80620005a66000396000f3fe608060405234801561001057600080fd5b506004361061023d5760003560e01c8063721972ef1161013b578063b88d4fde116100b8578063ce9d81441161007c578063ce9d814414610559578063d71bb37b1461056c578063d8fc063d1461057f578063e985e9c514610587578063f2fde38b1461059a57600080fd5b8063b88d4fde14610501578063b985e9c214610514578063c297fa0f14610529578063c87b56dd14610533578063c95d6edc1461054657600080fd5b806395d89b41116100ff57806395d89b41146104835780639cd3ef801461048b578063a22cb465146104bb578063a8c7b629146104ce578063ad5abed8146104e157600080fd5b8063721972ef146104315780637838e4081461044457806384370813146104575780638456cb591461046a5780638da5cb5b1461047257600080fd5b80632e6ca588116101c95780635f8d26b21161018d5780635f8d26b2146103e7578063632ddc38146103f05780636352211e1461040357806370a0823114610416578063715018a61461042957600080fd5b80632e6ca588146103805780633f4ba83a146103a057806342842e0e146103a85780635a2bbe3c146103bb5780635c975abb146103dc57600080fd5b806311eac8551161021057806311eac855146102bf57806321235083146102d257806323b872dd146102e5578063284c7f35146102f85780632d5bbf601461031d57600080fd5b806301ffc9a71461024257806306fdde031461026a578063081812fc1461027f578063095ea7b3146102aa575b600080fd5b610255610250366004613564565b6105ad565b60405190151581526020015b60405180910390f35b6102726105ff565b60405161026191906135d8565b61029261028d3660046135eb565b610691565b6040516001600160a01b039091168152602001610261565b6102bd6102b836600461361b565b6106b8565b005b600a54610292906001600160a01b031681565b6102bd6102e03660046135eb565b6107d2565b6102bd6102f3366004613645565b610ab0565b61030b6103063660046135eb565b610ae1565b60405161026196959493929190613681565b61035861032b3660046135eb565b600c6020526000908152604090208054600182015460029092015490919060ff8082169161010090041684565b6040805194855260208501939093529015159183019190915215156060820152608001610261565b61039361038e3660046136d6565b610c36565b60405161026191906136f1565b6102bd610ca2565b6102bd6103b6366004613645565b610cb4565b6103ce6103c9366004613735565b610ccf565b604051908152602001610261565b60085460ff16610255565b6103ce600f5481565b6102bd6103fe3660046135eb565b610d00565b6102926104113660046135eb565b6110e3565b6103ce6104243660046136d6565b611143565b6102bd6111c9565b6102bd61043f366004613803565b6111db565b6102bd61045236600461387e565b6111ef565b6102bd610465366004613735565b611225565b6102bd611587565b6006546001600160a01b0316610292565b610272611597565b61049e6104993660046135eb565b6115a6565b604080519384526020840192909252151590820152606001610261565b6102bd6104c93660046138ae565b611625565b6102556104dc3660046135eb565b611630565b6104f46104ef3660046135eb565b611670565b6040516102619190613947565b6102bd61050f36600461395a565b6117fb565b61051c611833565b60405161026191906139d6565b6103ce62278d0081565b6102726105413660046135eb565b611ad3565b6103ce61055436600461361b565b611d7d565b6102bd6105673660046135eb565b611d99565b6102bd61057a3660046135eb565b611e61565b6102bd6120fa565b610255610595366004613a38565b612199565b6102bd6105a83660046136d6565b6121c7565b60006001600160e01b031982166380ac58cd60e01b14806105de57506001600160e01b03198216635b5e139f60e01b145b806105f957506301ffc9a760e01b6001600160e01b03198316145b92915050565b60606000805461060e90613a6b565b80601f016020809104026020016040519081016040528092919081815260200182805461063a90613a6b565b80156106875780601f1061065c57610100808354040283529160200191610687565b820191906000526020600020905b81548152906001019060200180831161066a57829003601f168201915b5050505050905090565b600061069c8261223d565b506000908152600460205260409020546001600160a01b031690565b60006106c3826110e3565b9050806001600160a01b0316836001600160a01b0316036107355760405162461bcd60e51b815260206004820152602160248201527f4552433732313a20617070726f76616c20746f2063757272656e74206f776e656044820152603960f91b60648201526084015b60405180910390fd5b336001600160a01b038216148061075157506107518133612199565b6107c35760405162461bcd60e51b815260206004820152603d60248201527f4552433732313a20617070726f76652063616c6c6572206973206e6f7420746f60448201527f6b656e206f776e6572206f7220617070726f76656420666f7220616c6c000000606482015260840161072c565b6107cd838361228d565b505050565b6107da6122fb565b6107e381612354565b6107ff5760405162461bcd60e51b815260040161072c90613aa5565b33610809826110e3565b6001600160a01b03161461082f5760405162461bcd60e51b815260040161072c90613ad3565b6000818152600c60205260409020600281015460ff166108615760405162461bcd60e51b815260040161072c90613afc565b600042826001015411610875576000610885565b4282600101546108859190613b49565b90508015610a55576000600b6000846000015481526020019081526020016000206040518060c0016040529081600082015481526020016001820180546108cb90613a6b565b80601f01602080910402602001604051908101604052809291908181526020018280546108f790613a6b565b80156109445780601f1061091957610100808354040283529160200191610944565b820191906000526020600020905b81548152906001019060200180831161092757829003601f168201915b505050505081526020016002820154815260200160038201805461096790613a6b565b80601f016020809104026020016040519081016040528092919081815260200182805461099390613a6b565b80156109e05780601f106109b5576101008083540402835291602001916109e0565b820191906000526020600020905b8154815290600101906020018083116109c357829003601f168201915b5050509183525050600491909101546001600160a01b0381166020830152600160a01b900460ff16151560409182015281015190915060009062278d0090610a29908590613b5c565b610a339190613b89565b90508015610a5257600a54610a52906001600160a01b03163383612371565b50505b60028201805460ff19169055610a6b33846123d4565b610a74836124a2565b604051339084907f533734a768f070673b823079652464b7e002bb51cdf15e3108209f397425225f90600090a35050610aad6001600755565b50565b610aba3382612537565b610ad65760405162461bcd60e51b815260040161072c90613b9d565b6107cd838383612596565b600b6020526000908152604090208054600182018054919291610b0390613a6b565b80601f0160208091040260200160405190810160405280929190818152602001828054610b2f90613a6b565b8015610b7c5780601f10610b5157610100808354040283529160200191610b7c565b820191906000526020600020905b815481529060010190602001808311610b5f57829003601f168201915b505050505090806002015490806003018054610b9790613a6b565b80601f0160208091040260200160405190810160405280929190818152602001828054610bc390613a6b565b8015610c105780601f10610be557610100808354040283529160200191610c10565b820191906000526020600020905b815481529060010190602001808311610bf357829003601f168201915b505050600490930154919250506001600160a01b0381169060ff600160a01b9091041686565b6001600160a01b0381166000908152600d6020908152604091829020805483518184028101840190945280845260609392830182828015610c9657602002820191906000526020600020905b815481526020019060010190808311610c82575b50505050509050919050565b610caa6126fa565b610cb2612754565b565b6107cd838383604051806020016040528060008152506117fb565b600e6020528160005260406000208181548110610ceb57600080fd5b90600052602060002001600091509150505481565b610d086122fb565b610d106127a6565b610d1981612354565b610d355760405162461bcd60e51b815260040161072c90613aa5565b6000818152600c60205260409020600281015460ff16610d675760405162461bcd60e51b815260040161072c90613afc565b6002810154610100900460ff16610dc05760405162461bcd60e51b815260206004820152601860248201527f4175746f2d72656e6577616c206e6f7420656e61626c65640000000000000000604482015260640161072c565b8060010154421015610e145760405162461bcd60e51b815260206004820152601860248201527f537562736372697074696f6e206e6f7420657870697265640000000000000000604482015260640161072c565b6000610e1f836110e3565b90506000600b6000846000015481526020019081526020016000206040518060c001604052908160008201548152602001600182018054610e5f90613a6b565b80601f0160208091040260200160405190810160405280929190818152602001828054610e8b90613a6b565b8015610ed85780601f10610ead57610100808354040283529160200191610ed8565b820191906000526020600020905b815481529060010190602001808311610ebb57829003601f168201915b5050505050815260200160028201548152602001600382018054610efb90613a6b565b80601f0160208091040260200160405190810160405280929190818152602001828054610f2790613a6b565b8015610f745780601f10610f4957610100808354040283529160200191610f74565b820191906000526020600020905b815481529060010190602001808311610f5757829003601f168201915b50505091835250506004918201546001600160a01b038082166020840152600160a01b90910460ff16151560409283015283820151600a5492516370a0823160e01b81528783169481019490945293945016906370a0823190602401602060405180830381865afa158015610fed573d6000803e3d6000fd5b505050506040513d601f19601f820116820180604052508101906110119190613bea565b101561105f5760405162461bcd60e51b815260206004820152601960248201527f496e73756666696369656e7420555344432062616c616e636500000000000000604482015260640161072c565b6040810151600a54611080916001600160a01b0390911690849030906127ec565b62278d008360010160008282546110979190613c03565b9091555050600183015460405190815284907f328f4610a15d0e6c197e13cb1b184720c7e4e7dcf6e07423b7625da3128358b19060200160405180910390a2505050610aad6001600755565b6000818152600260205260408120546001600160a01b0316806105f95760405162461bcd60e51b8152602060048201526018602482015277115490cdcc8c4e881a5b9d985b1a59081d1bdad95b88125160421b604482015260640161072c565b60006001600160a01b0382166111ad5760405162461bcd60e51b815260206004820152602960248201527f4552433732313a2061646472657373207a65726f206973206e6f7420612076616044820152683634b21037bbb732b960b91b606482015260840161072c565b506001600160a01b031660009081526003602052604090205490565b6111d16126fa565b610cb26000612824565b6111e36126fa565b6107cd83838333612876565b6111f76126fa565b6000918252600b60205260409091206004018054911515600160a01b0260ff60a01b19909216919091179055565b61122d6122fb565b6112356127a6565b6000828152600b6020526040902060040154600160a01b900460ff1661128f5760405162461bcd60e51b815260206004820152600f60248201526e506c616e206e6f742061637469766560881b604482015260640161072c565b600081116112d25760405162461bcd60e51b815260206004820152601060248201526f24b73b30b634b210323ab930ba34b7b760811b604482015260640161072c565b6000600b60008481526020019081526020016000206040518060c00160405290816000820154815260200160018201805461130c90613a6b565b80601f016020809104026020016040519081016040528092919081815260200182805461133890613a6b565b80156113855780601f1061135a57610100808354040283529160200191611385565b820191906000526020600020905b81548152906001019060200180831161136857829003601f168201915b50505050508152602001600282015481526020016003820180546113a890613a6b565b80601f01602080910402602001604051908101604052809291908181526020018280546113d490613a6b565b80156114215780601f106113f657610100808354040283529160200191611421565b820191906000526020600020905b81548152906001019060200180831161140457829003601f168201915b5050509183525050600491909101546001600160a01b038082166020840152600160a01b90910460ff16151560409283015290820151600a5492935061146e9290911690339030906127ec565b600061147960095490565b9050611489600980546001019055565b611493338261298d565b600061149f8442613c03565b60408051608081018252878152602080820184815260018385018181526000606086018181528a8252600c865287822096518755935186840155905160029095018054935115156101000261ff00199615159690961661ffff19909416939093179490941790915533808452600d835284842080548084018255908552838520018890558a8452600e83528484208054928301815584529282902001869055915183815292935091879185917fbd86ae7c057a07b4cce4ace781f75b323a5d5f22cb0dc58d410d80c9b21e3d60910160405180910390a45050506115836001600755565b5050565b61158f6126fa565b610cb26129a7565b60606001805461060e90613a6b565b60008060006115b484612354565b6115d05760405162461bcd60e51b815260040161072c90613aa5565b5050506000818152600c602090815260409182902082516080810184528154808252600183015493820184905260029092015460ff808216151595830186905261010090910416151560609091015293909250565b6115833383836129e4565b600061163b82612354565b6116575760405162461bcd60e51b815260040161072c90613aa5565b506000908152600c602052604090206001015442101590565b61167861350d565b600b60008381526020019081526020016000206040518060c0016040529081600082015481526020016001820180546116b090613a6b565b80601f01602080910402602001604051908101604052809291908181526020018280546116dc90613a6b565b80156117295780601f106116fe57610100808354040283529160200191611729565b820191906000526020600020905b81548152906001019060200180831161170c57829003601f168201915b505050505081526020016002820154815260200160038201805461174c90613a6b565b80601f016020809104026020016040519081016040528092919081815260200182805461177890613a6b565b80156117c55780601f1061179a576101008083540402835291602001916117c5565b820191906000526020600020905b8154815290600101906020018083116117a857829003601f168201915b5050509183525050600491909101546001600160a01b0381166020830152600160a01b900460ff16151560409091015292915050565b6118053383612537565b6118215760405162461bcd60e51b815260040161072c90613b9d565b61182d84848484612ab2565b50505050565b6060600060015b600f54811015611885576000818152600b6020526040902060040154600160a01b900460ff1615611873578161186f81613c16565b9250505b8061187d81613c16565b91505061183a565b5060008167ffffffffffffffff8111156118a1576118a1613757565b6040519080825280602002602001820160405280156118da57816020015b6118c761350d565b8152602001906001900390816118bf5790505b509050600060015b600f54811015611aca576000818152600b6020526040902060040154600160a01b900460ff1615611ab857600b60008281526020019081526020016000206040518060c00160405290816000820154815260200160018201805461194590613a6b565b80601f016020809104026020016040519081016040528092919081815260200182805461197190613a6b565b80156119be5780601f10611993576101008083540402835291602001916119be565b820191906000526020600020905b8154815290600101906020018083116119a157829003601f168201915b50505050508152602001600282015481526020016003820180546119e190613a6b565b80601f0160208091040260200160405190810160405280929190818152602001828054611a0d90613a6b565b8015611a5a5780601f10611a2f57610100808354040283529160200191611a5a565b820191906000526020600020905b815481529060010190602001808311611a3d57829003601f168201915b5050509183525050600491909101546001600160a01b0381166020830152600160a01b900460ff1615156040909101528351849084908110611a9e57611a9e613c2f565b60200260200101819052508180611ab490613c16565b9250505b80611ac281613c16565b9150506118e2565b50909392505050565b6060611ade82612354565b611afa5760405162461bcd60e51b815260040161072c90613aa5565b6000828152600c60209081526040808320815160808101835281548082526001808401548387015260029093015460ff80821615158487015261010090910416151560608301528552600b8452828520835160c08101909452805484529182018054919594840191611b6b90613a6b565b80601f0160208091040260200160405190810160405280929190818152602001828054611b9790613a6b565b8015611be45780601f10611bb957610100808354040283529160200191611be4565b820191906000526020600020905b815481529060010190602001808311611bc757829003601f168201915b5050505050815260200160028201548152602001600382018054611c0790613a6b565b80601f0160208091040260200160405190810160405280929190818152602001828054611c3390613a6b565b8015611c805780601f10611c5557610100808354040283529160200191611c80565b820191906000526020600020905b815481529060010190602001808311611c6357829003601f168201915b5050509183525050600491909101546001600160a01b038116602080840191909152600160a01b90910460ff1615156040909201919091528101516060820151919250611d5591611cd082612ae5565b8460200151611ce28760200151612d6c565b8760400151611d0e576040518060400160405280600581526020016466616c736560d81b815250611d2c565b604051806040016040528060048152602001637472756560e01b8152505b604051602001611d4196959493929190613c61565b604051602081830303815290604052612e6d565b604051602001611d659190613e32565b60405160208183030381529060405292505050919050565b600d6020528160005260406000208181548110610ceb57600080fd5b611da281612354565b611dbe5760405162461bcd60e51b815260040161072c90613aa5565b33611dc8826110e3565b6001600160a01b031614611dee5760405162461bcd60e51b815260040161072c90613ad3565b6000818152600c602052604090819020600201805460ff610100808304821615810261ff00199093169290921792839055925184937fe3e3640567819dde28cc654d82327aa43c872f549d335f191827e5c15cdd271c93611e56939004161515815260200190565b60405180910390a250565b611e696122fb565b611e716127a6565b611e7a81612354565b611e965760405162461bcd60e51b815260040161072c90613aa5565b33611ea0826110e3565b6001600160a01b031614611ec65760405162461bcd60e51b815260040161072c90613ad3565b6000818152600c60205260409020600281015460ff16611ef85760405162461bcd60e51b815260040161072c90613afc565b6000600b6000836000015481526020019081526020016000206040518060c001604052908160008201548152602001600182018054611f3690613a6b565b80601f0160208091040260200160405190810160405280929190818152602001828054611f6290613a6b565b8015611faf5780601f10611f8457610100808354040283529160200191611faf565b820191906000526020600020905b815481529060010190602001808311611f9257829003601f168201915b5050505050815260200160028201548152602001600382018054611fd290613a6b565b80601f0160208091040260200160405190810160405280929190818152602001828054611ffe90613a6b565b801561204b5780601f106120205761010080835404028352916020019161204b565b820191906000526020600020905b81548152906001019060200180831161202e57829003601f168201915b5050509183525050600491909101546001600160a01b038082166020840152600160a01b90910460ff16151560409283015290820151600a549293506120989290911690339030906127ec565b62278d008260010160008282546120af9190613c03565b9091555050600182015460405190815283907f328f4610a15d0e6c197e13cb1b184720c7e4e7dcf6e07423b7625da3128358b19060200160405180910390a25050610aad6001600755565b6121026126fa565b600a546040516370a0823160e01b81523060048201526000916001600160a01b0316906370a0823190602401602060405180830381865afa15801561214b573d6000803e3d6000fd5b505050506040513d601f19601f8201168201806040525081019061216f9190613bea565b9050610aad6121866006546001600160a01b031690565b600a546001600160a01b03169083612371565b6001600160a01b03918216600090815260056020908152604080832093909416825291909152205460ff1690565b6121cf6126fa565b6001600160a01b0381166122345760405162461bcd60e51b815260206004820152602660248201527f4f776e61626c653a206e6577206f776e657220697320746865207a65726f206160448201526564647265737360d01b606482015260840161072c565b610aad81612824565b61224681612354565b610aad5760405162461bcd60e51b8152602060048201526018602482015277115490cdcc8c4e881a5b9d985b1a59081d1bdad95b88125160421b604482015260640161072c565b600081815260046020526040902080546001600160a01b0319166001600160a01b03841690811790915581906122c2826110e3565b6001600160a01b03167f8c5be1e5ebec7d5bd14f71427d1e84f3dd0314c0f7b2291e5b200ac8c7c3b92560405160405180910390a45050565b60026007540361234d5760405162461bcd60e51b815260206004820152601f60248201527f5265656e7472616e637947756172643a207265656e7472616e742063616c6c00604482015260640161072c565b6002600755565b6000908152600260205260409020546001600160a01b0316151590565b6040516001600160a01b0383166024820152604481018290526107cd90849063a9059cbb60e01b906064015b60408051601f198184030181529190526020810180516001600160e01b03166001600160e01b031990931692909217909152612f94565b6001600160a01b0382166000908152600d60205260408120905b815481101561182d578282828154811061240a5761240a613c2f565b906000526020600020015403612490578154829061242a90600190613b49565b8154811061243a5761243a613c2f565b906000526020600020015482828154811061245757612457613c2f565b90600052602060002001819055508180548061247557612475613e77565b6001900381819060005260206000200160009055905561182d565b8061249a81613c16565b9150506123ee565b60006124ad826110e3565b90506124b8826110e3565b600083815260046020908152604080832080546001600160a01b03199081169091556001600160a01b0385168085526003845282852080546000190190558785526002909352818420805490911690555192935084927fddf252ad1be2c89b69c2b068fc378daa952ba7f163c4a11628f55a4df523b3ef908390a45050565b600080612543836110e3565b9050806001600160a01b0316846001600160a01b0316148061256a575061256a8185612199565b8061258e5750836001600160a01b031661258384610691565b6001600160a01b0316145b949350505050565b826001600160a01b03166125a9826110e3565b6001600160a01b0316146125cf5760405162461bcd60e51b815260040161072c90613e8d565b6001600160a01b0382166126315760405162461bcd60e51b8152602060048201526024808201527f4552433732313a207472616e7366657220746f20746865207a65726f206164646044820152637265737360e01b606482015260840161072c565b826001600160a01b0316612644826110e3565b6001600160a01b03161461266a5760405162461bcd60e51b815260040161072c90613e8d565b600081815260046020908152604080832080546001600160a01b03199081169091556001600160a01b0387811680865260038552838620805460001901905590871680865283862080546001019055868652600290945282852080549092168417909155905184937fddf252ad1be2c89b69c2b068fc378daa952ba7f163c4a11628f55a4df523b3ef91a4505050565b6006546001600160a01b03163314610cb25760405162461bcd60e51b815260206004820181905260248201527f4f776e61626c653a2063616c6c6572206973206e6f7420746865206f776e6572604482015260640161072c565b61275c613069565b6008805460ff191690557f5db9ee0a495bf2e6ff9c91a7834c1ba4fdd244a5e8aa4e537bd38aeae4b073aa335b6040516001600160a01b03909116815260200160405180910390a1565b60085460ff1615610cb25760405162461bcd60e51b815260206004820152601060248201526f14185d5cd8589b194e881c185d5cd95960821b604482015260640161072c565b6040516001600160a01b038085166024830152831660448201526064810182905261182d9085906323b872dd60e01b9060840161239d565b600680546001600160a01b038381166001600160a01b0319831681179093556040519116919082907f8be0079c531659141344cd1fd0a4f28419497f9722a3daafe3b4186f6b6457e090600090a35050565b600f80546000918261288783613c16565b909155506040805160c0810182528281526020808201898152828401899052606083018890526001600160a01b0387166080840152600160a084018190526000868152600b90935293909120825181559051939450909290918201906128ed9082613f20565b50604082015160028201556060820151600382019061290c9082613f20565b5060808201516004909101805460a0909301511515600160a01b026001600160a81b03199093166001600160a01b039092169190911791909117905560405181907fbaf88bac550ae2e2c318d8ae7b6635be6245d8a97c6eba57d40d83b4878105179061297e90889088908790613fe0565b60405180910390a25050505050565b6115838282604051806020016040528060008152506130b2565b6129af6127a6565b6008805460ff191660011790557f62e78cea01bee320cd4e420270b5ea74000d11b0c9f74754ebdbfc544b05a2586127893390565b816001600160a01b0316836001600160a01b031603612a455760405162461bcd60e51b815260206004820152601960248201527f4552433732313a20617070726f766520746f2063616c6c657200000000000000604482015260640161072c565b6001600160a01b03838116600081815260056020908152604080832094871680845294825291829020805460ff191686151590811790915591519182527f17307eab39ab6107e8899845ad3d59bd9653f200f220920489ca2b5937696c31910160405180910390a3505050565b612abd848484612596565b612ac9848484846130e5565b61182d5760405162461bcd60e51b815260040161072c90614013565b80516060908290600090612afa906003613b5c565b67ffffffffffffffff811115612b1257612b12613757565b6040519080825280601f01601f191660200182016040528015612b3c576020820181803683370190505b509050806000805b8451811015612d61576000858281518110612b6157612b61613c2f565b01602001516001600160f81b0319169050600360fc1b8110801590612b945750603960f81b6001600160f81b0319821611155b15612bd55780848481518110612bac57612bac613c2f565b60200101906001600160f81b031916908160001a90535082612bcd81613c16565b935050612d4e565b604160f81b6001600160f81b0319821610801590612c015750602d60f91b6001600160f81b0319821611155b15612c195780848481518110612bac57612bac613c2f565b606160f81b6001600160f81b0319821610801590612c455750603d60f91b6001600160f81b0319821611155b15612c5d5780848481518110612bac57612bac613c2f565b6001600160f81b03198116600160fd1b03612c8957602b60f81b848481518110612bac57612bac613c2f565b602560f81b848481518110612ca057612ca0613c2f565b60200101906001600160f81b031916908160001a90535082612cc181613c16565b9350612cd2905060fc82901c6131e6565b848481518110612ce457612ce4613c2f565b60200101906001600160f81b031916908160001a90535082612d0581613c16565b935050612d178160f81c600f166131e6565b848481518110612d2957612d29613c2f565b60200101906001600160f81b031916908160001a90535082612d4a81613c16565b9350505b5080612d5981613c16565b915050612b44565b509095945050505050565b606081600003612d935750506040805180820190915260018152600360fc1b602082015290565b8160005b8115612dbd5780612da781613c16565b9150612db69050600a83613b89565b9150612d97565b60008167ffffffffffffffff811115612dd857612dd8613757565b6040519080825280601f01601f191660200182016040528015612e02576020820181803683370190505b5090505b841561258e57612e17600183613b49565b9150612e24600a86614065565b612e2f906030613c03565b60f81b818381518110612e4457612e44613c2f565b60200101906001600160f81b031916908160001a905350612e66600a86613b89565b9450612e06565b60608151600003612e8c57505060408051602081019091526000815290565b60006040518060600160405280604081526020016141266040913990506000600384516002612ebb9190613c03565b612ec59190613b89565b612ed0906004613b5c565b67ffffffffffffffff811115612ee857612ee8613757565b6040519080825280601f01601f191660200182016040528015612f12576020820181803683370190505b509050600182016020820160005b8651811015612f5157825160ff8116600891821b8101821b810190911b0160e01b8252600490910190600301612f20565b50600386510660018114612f6c5760028114612f7d57612f89565b613d3d60f01b600119830152612f89565b603d60f81b6000198301525b509195945050505050565b6000612fe9826040518060400160405280602081526020017f5361666545524332303a206c6f772d6c6576656c2063616c6c206661696c6564815250856001600160a01b03166132189092919063ffffffff16565b905080516000148061300a57508080602001905181019061300a9190614079565b6107cd5760405162461bcd60e51b815260206004820152602a60248201527f5361666545524332303a204552433230206f7065726174696f6e20646964206e6044820152691bdd081cdd58d8d9595960b21b606482015260840161072c565b60085460ff16610cb25760405162461bcd60e51b815260206004820152601460248201527314185d5cd8589b194e881b9bdd081c185d5cd95960621b604482015260640161072c565b6130bc8383613227565b6130c960008484846130e5565b6107cd5760405162461bcd60e51b815260040161072c90614013565b60006001600160a01b0384163b156131db57604051630a85bd0160e11b81526001600160a01b0385169063150b7a0290613129903390899088908890600401614096565b6020604051808303816000875af1925050508015613164575060408051601f3d908101601f19168201909252613161918101906140d3565b60015b6131c1573d808015613192576040519150601f19603f3d011682016040523d82523d6000602084013e613197565b606091505b5080516000036131b95760405162461bcd60e51b815260040161072c90614013565b805181602001fd5b6001600160e01b031916630a85bd0160e11b14905061258e565b506001949350505050565b6000600a8260ff161015613208576131ff8260306140f0565b60f81b92915050565b6131ff8260376140f0565b919050565b606061258e8484600085613394565b6001600160a01b03821661327d5760405162461bcd60e51b815260206004820181905260248201527f4552433732313a206d696e7420746f20746865207a65726f2061646472657373604482015260640161072c565b61328681612354565b156132d35760405162461bcd60e51b815260206004820152601c60248201527f4552433732313a20746f6b656e20616c7265616479206d696e74656400000000604482015260640161072c565b6132dc81612354565b156133295760405162461bcd60e51b815260206004820152601c60248201527f4552433732313a20746f6b656e20616c7265616479206d696e74656400000000604482015260640161072c565b6001600160a01b038216600081815260036020908152604080832080546001019055848352600290915280822080546001600160a01b0319168417905551839291907fddf252ad1be2c89b69c2b068fc378daa952ba7f163c4a11628f55a4df523b3ef908290a45050565b6060824710156133f55760405162461bcd60e51b815260206004820152602660248201527f416464726573733a20696e73756666696369656e742062616c616e636520666f6044820152651c8818d85b1b60d21b606482015260840161072c565b600080866001600160a01b031685876040516134119190614109565b60006040518083038185875af1925050503d806000811461344e576040519150601f19603f3d011682016040523d82523d6000602084013e613453565b606091505b50915091506134648783838761346f565b979650505050505050565b606083156134de5782516000036134d7576001600160a01b0385163b6134d75760405162461bcd60e51b815260206004820152601d60248201527f416464726573733a2063616c6c20746f206e6f6e2d636f6e7472616374000000604482015260640161072c565b508161258e565b61258e83838151156134f35781518083602001fd5b8060405162461bcd60e51b815260040161072c91906135d8565b6040518060c001604052806000815260200160608152602001600081526020016060815260200160006001600160a01b031681526020016000151581525090565b6001600160e01b031981168114610aad57600080fd5b60006020828403121561357657600080fd5b81356135818161354e565b9392505050565b60005b838110156135a357818101518382015260200161358b565b50506000910152565b600081518084526135c4816020860160208601613588565b601f01601f19169290920160200192915050565b60208152600061358160208301846135ac565b6000602082840312156135fd57600080fd5b5035919050565b80356001600160a01b038116811461321357600080fd5b6000806040838503121561362e57600080fd5b61363783613604565b946020939093013593505050565b60008060006060848603121561365a57600080fd5b61366384613604565b925061367160208501613604565b9150604084013590509250925092565b86815260c06020820152600061369a60c08301886135ac565b86604084015282810360608401526136b281876135ac565b6001600160a01b03959095166080840152505090151560a090910152949350505050565b6000602082840312156136e857600080fd5b61358182613604565b6020808252825182820181905260009190848201906040850190845b818110156137295783518352928401929184019160010161370d565b50909695505050505050565b6000806040838503121561374857600080fd5b50508035926020909101359150565b634e487b7160e01b600052604160045260246000fd5b600067ffffffffffffffff8084111561378857613788613757565b604051601f8501601f19908116603f011681019082821181831017156137b0576137b0613757565b816040528093508581528686860111156137c957600080fd5b858560208301376000602087830101525050509392505050565b600082601f8301126137f457600080fd5b6135818383356020850161376d565b60008060006060848603121561381857600080fd5b833567ffffffffffffffff8082111561383057600080fd5b61383c878388016137e3565b945060208601359350604086013591508082111561385957600080fd5b50613866868287016137e3565b9150509250925092565b8015158114610aad57600080fd5b6000806040838503121561389157600080fd5b8235915060208301356138a381613870565b809150509250929050565b600080604083850312156138c157600080fd5b6138ca83613604565b915060208301356138a381613870565b805182526000602082015160c060208501526138f960c08501826135ac565b9050604083015160408501526060830151848203606086015261391c82826135ac565b6080858101516001600160a01b03169087015260a09485015115159590940194909452509092915050565b60208152600061358160208301846138da565b6000806000806080858703121561397057600080fd5b61397985613604565b935061398760208601613604565b925060408501359150606085013567ffffffffffffffff8111156139aa57600080fd5b8501601f810187136139bb57600080fd5b6139ca8782356020840161376d565b91505092959194509250565b6000602080830181845280855180835260408601915060408160051b870101925083870160005b82811015613a2b57603f19888603018452613a198583516138da565b945092850192908501906001016139fd565b5092979650505050505050565b60008060408385031215613a4b57600080fd5b613a5483613604565b9150613a6260208401613604565b90509250929050565b600181811c90821680613a7f57607f821691505b602082108103613a9f57634e487b7160e01b600052602260045260246000fd5b50919050565b602080825260149082015273151bdad95b88191bd95cc81b9bdd08195e1a5cdd60621b604082015260600190565b6020808252600f908201526e2737ba103a37b5b2b71037bbb732b960891b604082015260600190565b60208082526017908201527f537562736372697074696f6e206e6f7420616374697665000000000000000000604082015260600190565b634e487b7160e01b600052601160045260246000fd5b818103818111156105f9576105f9613b33565b80820281158282048414176105f9576105f9613b33565b634e487b7160e01b600052601260045260246000fd5b600082613b9857613b98613b73565b500490565b6020808252602d908201527f4552433732313a2063616c6c6572206973206e6f7420746f6b656e206f776e6560408201526c1c881bdc88185c1c1c9bdd9959609a1b606082015260800190565b600060208284031215613bfc57600080fd5b5051919050565b808201808211156105f9576105f9613b33565b600060018201613c2857613c28613b33565b5060010190565b634e487b7160e01b600052603260045260246000fd5b60008151613c57818560208601613588565b9290920192915050565b683d913730b6b2911d1160b91b81528651600090613c86816009850160208c01613588565b7f20537562736372697074696f6e204e4654222c226465736372697074696f6e22600991840191820152611d1160f11b60298201528751613cce81602b840160208c01613588565b7f222c22696d616765223a2268747470733a2f2f7669612e706c616365686f6c64602b92909101918201527f65722e636f6d2f333030783330302f3633363666312f6666666666663f746578604b82015261743d60f01b606b8201528651613d3d81606d840160208b01613588565b613e24613e14613e0e613dd9613dd3613d9e613d98606d888a01017f222c2261747472696275746573223a5b7b2274726169745f74797065223a225081526d3630b71116113b30b63ab2911d1160911b6020820152602e0190565b8d613c45565b7f227d2c7b2274726169745f74797065223a22457870697279222c2276616c7565815262111d1160e91b602082015260230190565b8a613c45565b7f227d2c7b2274726169745f74797065223a22416374697665222c2276616c7565815262111d1160e91b602082015260230190565b87613c45565b63227d5d7d60e01b815260040190565b9a9950505050505050505050565b7f646174613a6170706c69636174696f6e2f6a736f6e3b6261736536342c000000815260008251613e6a81601d850160208701613588565b91909101601d0192915050565b634e487b7160e01b600052603160045260246000fd5b60208082526025908201527f4552433732313a207472616e736665722066726f6d20696e636f72726563742060408201526437bbb732b960d91b606082015260800190565b601f8211156107cd57600081815260208120601f850160051c81016020861015613ef95750805b601f850160051c820191505b81811015613f1857828155600101613f05565b505050505050565b815167ffffffffffffffff811115613f3a57613f3a613757565b613f4e81613f488454613a6b565b84613ed2565b602080601f831160018114613f835760008415613f6b5750858301515b600019600386901b1c1916600185901b178555613f18565b600085815260208120601f198616915b82811015613fb257888601518255948401946001909101908401613f93565b5085821015613fd05787850151600019600388901b60f8161c191681555b5050505050600190811b01905550565b606081526000613ff360608301866135ac565b6020830194909452506001600160a01b0391909116604090910152919050565b60208082526032908201527f4552433732313a207472616e7366657220746f206e6f6e20455243373231526560408201527131b2b4bb32b91034b6b83632b6b2b73a32b960711b606082015260800190565b60008261407457614074613b73565b500690565b60006020828403121561408b57600080fd5b815161358181613870565b6001600160a01b03858116825284166020820152604081018390526080606082018190526000906140c9908301846135ac565b9695505050505050565b6000602082840312156140e557600080fd5b81516135818161354e565b60ff81811683821601908111156105f9576105f9613b33565b6000825161411b818460208701613588565b919091019291505056fe4142434445464748494a4b4c4d4e4f505152535455565758595a6162636465666768696a6b6c6d6e6f707172737475767778797a303132333435363738392b2fa26469706673582212200f426e3fc0135f9df5ab2828cb17ea0ee4c9a99c74b2537d2e38a6f899cdec3464736f6c634300081300335072656d69756d2067616d696e6720666561747572657320616e64206578636c7573697665204e46542064726f7073416476616e636564204465466920616e616c797469637320616e6420706f7274666f6c696f20747261636b696e67416476616e636564204e46542074726164696e6720746f6f6c7320616e64206d61726b657420696e736967687473",
  "linkReferences": {},
  "deployedLinkReferences": {}
}